:100000000C942A000C947D020C947D020C947D02C9
:100010000C947D020C947D020C947D020C947D0264
:100020000C947D020C947D020C947D020C947D0254
:100030000C947D020C947D020C947D020C947D0244
:100040000C947D020C947D020C947D020C947D0234
:100050000C947D0211241FBECFE5D8E0DEBFCDBFDA
:0C0060000E9419020C946E02F894FFCF6D
:10006C00416C66726564204E6167790048656C6C02
:09007C006F20776F726C642100A3
:100086009FEF980F943008F078C0683008F075C07C
:1000960041113BC08230A9F018F4813031F0089547
:1000A6008330D9F0843029F108952AB381E090E0B5
:1000B60002C0880F991F6A95E2F7809582238ABB52
:1000C600089527B381E090E002C0880F991F6A95D2
:1000D600E2F78095822387BB089524B381E090E000
:1000E60002C0880F991F6A95E2F78095822384BB28
:1000F600089521B381E090E002C0880F991F6A95A8
:10010600E2F78095822381BB08954130B1F58230B4
:10011600A1F018F4813031F008958330C9F08430AD
:1001260011F108952AB381E090E002C0880F991F6B
:100136006A95E2F7822B8ABB089527B381E090E0A7
:1001460002C0880F991F6A95E2F7822B87BB089534
:1001560024B381E090E002C0880F991F6A95E2F708
:10016600822B84BB089521B381E090E002C0880F02
:0C017600991F6A95E2F7822B81BB089567
:100182009FEF980F943008F078C0683008F075C07F
:1001920041113BC08230A9F018F4813031F008954A
:1001A2008330D9F0843029F108952BB381E090E0B7
:1001B20002C0880F991F6A95E2F7809582238BBB54
:1001C200089528B381E090E002C0880F991F6A95D4
:1001D200E2F78095822388BB089525B381E090E001
:1001E20002C0880F991F6A95E2F78095822385BB2A
:1001F200089522B381E090E002C0880F991F6A95AA
:10020200E2F78095822382BB08954130B1F58230B6
:10021200A1F018F4813031F008958330C9F08430B0
:1002220011F108952BB381E090E002C0880F991F6D
:100232006A95E2F7822B8BBB089528B381E090E0A8
:1002420002C0880F991F6A95E2F7822B88BB089536
:1002520025B381E090E002C0880F991F6A95E2F70A
:10026200822B85BB089522B381E090E002C0880F03
:0C027200991F6A95E2F7822B82BB089569
:10027E00CF93C82F40E060E081E00E94C1008FEC78
:10028E0097E00197F1F700C0000041E061E081E0E6
:10029E000E94C1008FEC97E00197F1F700C00000BB
:1002AE006C2F607F82E00E9457028FEC97E00197DF
:1002BE00F1F700C0000040E061E081E00E94C10063
:1002CE008FEC97E00197F1F700C0000041E061E08C
:1002DE0081E00E94C1008FEC97E00197F1F700C01A
:1002EE00000090E1C99FB001112482E00E945702E4
:1002FE008FEC97E00197F1F700C0000040E061E05D
:10030E0081E00E94C1008FEC97E00197F1F700C0E9
:06031E000000CF910895DC
:10032400CF93C82F41E060E081E00E94C1008FECD0
:1003340097E00197F1F700C0000041E061E081E03F
:100344000E94C1008FEC97E00197F1F700C0000014
:100354006C2F607F82E00E9457028FEC97E0019738
:10036400F1F700C0000040E061E081E00E94C100BC
:100374008FEC97E00197F1F700C0000041E061E0E5
:1003840081E00E94C1008FEC97E00197F1F700C073
:10039400000090E1C99FB001112482E00E9457023D
:1003A4008FEC97E00197F1F700C0000040E061E0B6
:1003B40081E00E94C1008FEC97E00197F1F700C043
:0603C4000000CF91089536
:1003CA0041E060E081E00E94430041E061E081E0B9
:1003DA000E9443008FE39CE90197F1F700C00000F7
:1003EA0041E064E082E00E94430041E065E082E08F
:1003FA000E94430041E066E082E00E94430041E03F
:10040A0067E082E00E94430083E30E943F0182E3A7
:10041A000E943F0188E20E943F018CE00E943F0156
:08042A0081E00E943F010895EA
:100432000E94E5016CE670E080E00E943C022FEF32
:100442008DE399E4215080409040E1F700C0000024
:100452000E94790268E770E080E00E943C022FEF80
:100462008DE399E4215080409040E1F700C0000004
:060472000E947902DFCFB9
:10047800CF92DF92EF92CF936B01E82EC0E003C0DA
:100488000E949201CF5FAE2DC6018C0F911DA11D58
:10049800FC018491A7FD80818111F2CFCF91EF906B
:0604A800DF90CF900895E3
:1004AE009FEF980F943090F4823059F018F4813009
:1004BE0031F00895833039F0843039F008956BBBF4
:0E04CE00089568BB089565BB089562BB08954C
:1004DC00EC010E9482020E948102CE010E948302E2
:0604EC00CE010E947F0218
:0804F20081E00E943F01089522
:0404FA000C9400005E
:0404FE000E94340024
:0205020008955A
:02050400089558
:02050600089556
:00000001FF
